{
  "contractName": "Auth",
  "abi": [
    {
      "anonymous": false,
      "inputs": [
        {
          "indexed": true,
          "internalType": "address",
          "name": "userAddress",
          "type": "address"
        },
        {
          "indexed": false,
          "internalType": "string",
          "name": "username",
          "type": "string"
        },
        {
          "indexed": false,
          "internalType": "string",
          "name": "email",
          "type": "string"
        }
      ],
      "name": "UserRegistered",
      "type": "event"
    },
    {
      "inputs": [
        {
          "internalType": "address",
          "name": "",
          "type": "address"
        }
      ],
      "name": "users",
      "outputs": [
        {
          "internalType": "string",
          "name": "username",
          "type": "string"
        },
        {
          "internalType": "string",
          "name": "email",
          "type": "string"
        }
      ],
      "stateMutability": "view",
      "type": "function"
    },
    {
      "inputs": [
        {
          "internalType": "string",
          "name": "_username",
          "type": "string"
        },
        {
          "internalType": "string",
          "name": "_email",
          "type": "string"
        }
      ],
      "name": "registerUser",
      "outputs": [],
      "stateMutability": "nonpayable",
      "type": "function"
    }
  ],
  "bytecode": "0x608060405234801561001057600080fd5b506106a4806100206000396000f3fe608060405234801561001057600080fd5b50600436106100365760003560e01c80631d2e4afd1461003b578063a87430ba14610057575b600080fd5b610055600480360381019061005091906103e9565b610088565b005b610071600480360381019061006c91906103c0565b61016c565b60405161007f92919061048e565b60405180910390f35b6040518060400160405280838152602001828152506000803373ffffffffffffffffffffffffffffffffffffffff1673ffffffffffffffffffffffffffffffffffffffff16815260200190815260200160002060008201518160000190805190602001906100f79291906102a0565b5060208201518160010190805190602001906101149291906102a0565b509050503373ffffffffffffffffffffffffffffffffffffffff167f92822564bab8864c3a47b34e8d23fbce5c46234eb5da261f94087b995ac0f33b838360405161016092919061048e565b60405180910390a25050565b600060205280600052604060002060009150905080600001805461018f906105b6565b80601f01602080910402602001604051908101604052809291908181526020018280546101bb906105b6565b80156102085780601f106101dd57610100808354040283529160200191610208565b820191906000526020600020905b8154815290600101906020018083116101eb57829003601f168201915b50505050509080600101805461021d906105b6565b80601f0160208091040260200160405190810160405280929190818152602001828054610249906105b6565b80156102965780601f1061026b57610100808354040283529160200191610296565b820191906000526020600020905b81548152906001019060200180831161027957829003601f168201915b5050505050905082565b8280546102ac906105b6565b90600052602060002090601f0160209004810192826102ce5760008555610315565b82601f106102e757805160ff1916838001178555610315565b82800160010185558215610315579182015b828111156103145782518255916020019190600101906102f9565b5b5090506103229190610326565b5090565b5b8082111561033f576000816000905550600101610327565b5090565b6000610356610351846104f6565b6104c5565b90508281526020810184848401111561036e57600080fd5b610379848285610574565b509392505050565b60008135905061039081610657565b92915050565b600082601f8301126103a757600080fd5b81356103b7848260208601610343565b91505092915050565b6000602082840312156103d257600080fd5b60006103e084828501610381565b91505092915050565b600080604083850312156103fc57600080fd5b600083013567ffffffffffffffff81111561041657600080fd5b61042285828601610396565b925050602083013567ffffffffffffffff81111561043f57600080fd5b61044b85828601610396565b9150509250929050565b600061046082610526565b61046a8185610531565b935061047a818560208601610583565b61048381610646565b840191505092915050565b600060408201905081810360008301526104a88185610455565b905081810360208301526104bc8184610455565b90509392505050565b6000604051905081810181811067ffffffffffffffff821117156104ec576104eb610617565b5b8060405250919050565b600067ffffffffffffffff82111561051157610510610617565b5b601f19601f8301169050602081019050919050565b600081519050919050565b600082825260208201905092915050565b600061054d82610554565b9050919050565b600073ffffffffffffffffffffffffffffffffffffffff82169050919050565b82818337600083830152505050565b60005b838110156105a1578082015181840152602081019050610586565b838111156105b0576000848401525b50505050565b600060028204905060018216806105ce57607f821691505b602082108114156105e2576105e16105e8565b5b50919050565b7f4e487b7100000000000000000000000000000000000000000000000000000000600052602260045260246000fd5b7f4e487b7100000000000000000000000000000000000000000000000000000000600052604160045260246000fd5b6000601f19601f8301169050919050565b61066081610542565b811461066b57600080fd5b5056fea2646970667358221220f2371413a17846537a19a38eda2d0293bcd00b5c741167babc2cd67a18736e5664736f6c63430008000033",
  "immutableReferences": {},
  "source": "// SPDX-License-Identifier: MIT\r\npragma solidity ^0.8.0;\r\n\r\ncontract Auth {\r\n    struct User {\r\n        string username;\r\n        string email;\r\n    }\r\n    \r\n    mapping(address => User) public users;\r\n    \r\n    event UserRegistered(address indexed userAddress, string username, string email);\r\n\r\n    function registerUser(string memory _username, string memory _email) public {\r\n        users[msg.sender] = User(_username, _email);\r\n        emit UserRegistered(msg.sender, _username, _email);\r\n    }\r\n}\r\n\r\n",
  "sourcePath": "C:\\Users\\krish\\Desktop\\blockchain\\my-blockchain-project\\contracts\\Auth.sol",
  "compiler": {
    "name": "solc",
    "version": "0.8.0+commit.c7dfd78e.Emscripten.clang"
  },
  "schemaVersion": "3.4.16",
  "updatedAt": "2024-11-25T18:43:58.311Z",
  "devdoc": {
    "kind": "dev",
    "methods": {},
    "version": 1
  },
  "userdoc": {
    "kind": "user",
    "methods": {},
    "version": 1
  }
}